{
  "_format": "hh-sol-artifact-1",
  "contractName": "IfElse",
  "sourceName": "contracts/IfElse.sol",
  "abi": [
    {
      "inputs": [
        {
          "internalType": "uint256",
          "name": "_x",
          "type": "uint256"
        }
      ],
      "name": "example",
      "outputs": [
        {
          "internalType": "uint256",
          "name": "",
          "type": "uint256"
        }
      ],
      "stateMutability": "pure",
      "type": "function"
    },
    {
      "inputs": [
        {
          "internalType": "uint256",
          "name": "_x",
          "type": "uint256"
        }
      ],
      "name": "ternary",
      "outputs": [
        {
          "internalType": "uint256",
          "name": "",
          "type": "uint256"
        }
      ],
      "stateMutability": "pure",
      "type": "function"
    }
  ],
  "bytecode": "0x608060405234801561001057600080fd5b506101b1806100206000396000f3fe608060405234801561001057600080fd5b50600436106100365760003560e01c8063477e4a021461003b57806355278c5b1461006b575b600080fd5b610055600480360381019061005091906100fe565b61009b565b604051610062919061013a565b60405180910390f35b610085600480360381019061008091906100fe565b6100cb565b604051610092919061013a565b60405180910390f35b6000600a8210156100af57600190506100c6565b60148210156100c157600290506100c6565b600390505b919050565b6000600a82106100dc5760026100df565b60015b60ff169050919050565b6000813590506100f881610164565b92915050565b6000602082840312156101145761011361015f565b5b6000610122848285016100e9565b91505092915050565b61013481610155565b82525050565b600060208201905061014f600083018461012b565b92915050565b6000819050919050565b600080fd5b61016d81610155565b811461017857600080fd5b5056fea2646970667358221220b682f902266ce33f5e98c3fdbb330e507eb70805056a70bfae748dac3f8a1ea964736f6c63430008070033",
  "linkReferences": {},
  "deployedLinkReferences": {}
}