{
  "_format": "hh-sol-artifact-1",
  "contractName": "DefiBank",
  "sourceName": "contracts/DefiBank.sol",
  "abi": [
    {
      "inputs": [
        {
          "internalType": "address",
          "name": "",
          "type": "address"
        }
      ],
      "name": "accounts",
      "outputs": [
        {
          "internalType": "uint256",
          "name": "",
          "type": "uint256"
        }
      ],
      "stateMutability": "view",
      "type": "function"
    },
    {
      "inputs": [],
      "name": "checkAssets",
      "outputs": [
        {
          "internalType": "uint256",
          "name": "",
          "type": "uint256"
        }
      ],
      "stateMutability": "view",
      "type": "function"
    },
    {
      "inputs": [],
      "name": "deposit",
      "outputs": [],
      "stateMutability": "payable",
      "type": "function"
    },
    {
      "inputs": [
        {
          "internalType": "uint256",
          "name": "_amount",
          "type": "uint256"
        }
      ],
      "name": "withdraw",
      "outputs": [],
      "stateMutability": "nonpayable",
      "type": "function"
    }
  ],
  "bytecode": "0x608060405234801561001057600080fd5b5061049e806100206000396000f3fe60806040526004361061003f5760003560e01c80632e1a7d4d146100445780635e5c06e21461006d57806371aa8fd9146100aa578063d0e30db0146100d5575b600080fd5b34801561005057600080fd5b5061006b6004803603810190610066919061027a565b6100df565b005b34801561007957600080fd5b50610094600480360381019061008f919061024d565b6101ac565b6040516100a191906102f9565b60405180910390f35b3480156100b657600080fd5b506100bf6101c4565b6040516100cc91906102f9565b60405180910390f35b6100dd6101cc565b005b806000803373ffffffffffffffffffffffffffffffffffffffff1673ffffffffffffffffffffffffffffffffffffffff16815260200190815260200160002054811115610161576040517f08c379a0000000000000000000000000000000000000000000000000000000008152600401610158906102d9565b60405180910390fd5b3373ffffffffffffffffffffffffffffffffffffffff166108fc839081150290604051600060405180830381858888f193505050501580156101a7573d6000803e3d6000fd5b505050565b60006020528060005260406000206000915090505481565b600047905090565b346000803373ffffffffffffffffffffffffffffffffffffffff1673ffffffffffffffffffffffffffffffffffffffff168152602001908152602001600020600082825461021a9190610325565b92505081905550565b6000813590506102328161043a565b92915050565b60008135905061024781610451565b92915050565b600060208284031215610263576102626103e6565b5b600061027184828501610223565b91505092915050565b6000602082840312156102905761028f6103e6565b5b600061029e84828501610238565b91505092915050565b60006102b4603483610314565b91506102bf826103eb565b604082019050919050565b6102d3816103ad565b82525050565b600060208201905081810360008301526102f2816102a7565b9050919050565b600060208201905061030e60008301846102ca565b92915050565b600082825260208201905092915050565b6000610330826103ad565b915061033b836103ad565b9250827fffffffffffffffffffffffffffffffffffffffffffffffffffffffffffffffff038211156103705761036f6103b7565b5b828201905092915050565b60006103868261038d565b9050919050565b600073ffffffffffffffffffffffffffffffffffffffff82169050919050565b6000819050919050565b7f4e487b7100000000000000000000000000000000000000000000000000000000600052601160045260246000fd5b600080fd5b7f446f6573206e6f7420686176652073756666696369656e742066756e6473206960008201527f6e20746865206163636f756e742062727568212e000000000000000000000000602082015250565b6104438161037b565b811461044e57600080fd5b50565b61045a816103ad565b811461046557600080fd5b5056fea26469706673582212201e511316e75321e3aa611b89c816a2822749eabb6c403abdfe34361b1806514464736f6c63430008070033",
  "linkReferences": {},
  "deployedLinkReferences": {}
}