{
  "_format": "hh-sol-artifact-1",
  "contractName": "Counter",
  "sourceName": "contracts/Counter.sol",
  "abi": [
    {
      "inputs": [],
      "name": "count",
      "outputs": [
        {
          "internalType": "uint256",
          "name": "",
          "type": "uint256"
        }
      ],
      "stateMutability": "view",
      "type": "function"
    },
    {
      "inputs": [],
      "name": "dec",
      "outputs": [],
      "stateMutability": "nonpayable",
      "type": "function"
    },
    {
      "inputs": [],
      "name": "inc",
      "outputs": [],
      "stateMutability": "nonpayable",
      "type": "function"
    }
  ],
  "bytecode": "0x608060405234801561001057600080fd5b506101d7806100206000396000f3fe608060405234801561001057600080fd5b50600436106100415760003560e01c806306661abd14610046578063371303c014610064578063b3bcfa821461006e575b600080fd5b61004e610078565b60405161005b91906100c3565b60405180910390f35b61006c61007e565b005b610076610099565b005b60005481565b600160008082825461009091906100de565b92505081905550565b60016000808282546100ab9190610134565b92505081905550565b6100bd81610168565b82525050565b60006020820190506100d860008301846100b4565b92915050565b60006100e982610168565b91506100f483610168565b9250827fffffffffffffffffffffffffffffffffffffffffffffffffffffffffffffffff0382111561012957610128610172565b5b828201905092915050565b600061013f82610168565b915061014a83610168565b92508282101561015d5761015c610172565b5b828203905092915050565b6000819050919050565b7f4e487b7100000000000000000000000000000000000000000000000000000000600052601160045260246000fdfea26469706673582212202166ec024837c30bcbdaaaa6360dc95b96d01d04a3fd215ec899ec81cba1287264736f6c63430008070033",
  "linkReferences": {},
  "deployedLinkReferences": {}
}